{
  "contractName": "Splitter",
  "abi": [
    {
      "constant": true,
      "inputs": [
        {
          "name": "",
          "type": "address"
        }
      ],
      "name": "balances",
      "outputs": [
        {
          "name": "",
          "type": "uint256"
        }
      ],
      "payable": false,
      "stateMutability": "view",
      "type": "function"
    },
    {
      "constant": false,
      "inputs": [
        {
          "name": "person",
          "type": "address"
        }
      ],
      "name": "withdraw",
      "outputs": [],
      "payable": false,
      "stateMutability": "nonpayable",
      "type": "function"
    },
    {
      "constant": false,
      "inputs": [],
      "name": "splitValue",
      "outputs": [],
      "payable": true,
      "stateMutability": "payable",
      "type": "function"
    },
    {
      "constant": true,
      "inputs": [],
      "name": "carol",
      "outputs": [
        {
          "name": "",
          "type": "address"
        }
      ],
      "payable": false,
      "stateMutability": "view",
      "type": "function"
    },
    {
      "constant": true,
      "inputs": [],
      "name": "owner",
      "outputs": [
        {
          "name": "",
          "type": "address"
        }
      ],
      "payable": false,
      "stateMutability": "view",
      "type": "function"
    },
    {
      "constant": false,
      "inputs": [],
      "name": "killSwitch",
      "outputs": [],
      "payable": false,
      "stateMutability": "nonpayable",
      "type": "function"
    },
    {
      "constant": true,
      "inputs": [],
      "name": "bob",
      "outputs": [
        {
          "name": "",
          "type": "address"
        }
      ],
      "payable": false,
      "stateMutability": "view",
      "type": "function"
    },
    {
      "constant": true,
      "inputs": [
        {
          "name": "person",
          "type": "address"
        }
      ],
      "name": "getBalance",
      "outputs": [
        {
          "name": "",
          "type": "uint256"
        }
      ],
      "payable": false,
      "stateMutability": "view",
      "type": "function"
    },
    {
      "inputs": [
        {
          "name": "addressBob",
          "type": "address"
        },
        {
          "name": "addressCarol",
          "type": "address"
        }
      ],
      "payable": false,
      "stateMutability": "nonpayable",
      "type": "constructor"
    },
    {
      "anonymous": false,
      "inputs": [
        {
          "indexed": false,
          "name": "sender",
          "type": "address"
        },
        {
          "indexed": false,
          "name": "amountToSplit",
          "type": "uint256"
        }
      ],
      "name": "LogSplitting",
      "type": "event"
    },
    {
      "anonymous": false,
      "inputs": [
        {
          "indexed": false,
          "name": "sender",
          "type": "address"
        }
      ],
      "name": "LogKillContract",
      "type": "event"
    },
    {
      "anonymous": false,
      "inputs": [
        {
          "indexed": false,
          "name": "person",
          "type": "address"
        }
      ],
      "name": "LogWithdraw",
      "type": "event"
    }
  ],
  "bytecode": "0x6060604052341561000f57600080fd5b60405160408061097b83398101604052808051906020019091908051906020019091905050336000806101000a81548173ffffffffffffffffffffffffffffffffffffffff021916908373ffffffffffffffffffffffffffffffffffffffff16021790555081600160006101000a81548173ffffffffffffffffffffffffffffffffffffffff021916908373ffffffffffffffffffffffffffffffffffffffff16021790555080600260006101000a81548173ffffffffffffffffffffffffffffffffffffffff021916908373ffffffffffffffffffffffffffffffffffffffff1602179055505050610874806101076000396000f30060606040526004361061008e576000357c0100000000000000000000000000000000000000000000000000000000900463ffffffff16806327e235e31461009357806351cff8d9146100e0578063609d640d146101195780638b930f15146101235780638da5cb5b14610178578063ada14698146101cd578063c09cec77146101e2578063f8b2cb4f14610237575b600080fd5b341561009e57600080fd5b6100ca600480803573ffffffffffffffffffffffffffffffffffffffff16906020019091905050610284565b6040518082815260200191505060405180910390f35b34156100eb57600080fd5b610117600480803573ffffffffffffffffffffffffffffffffffffffff1690602001909190505061029c565b005b610121610414565b005b341561012e57600080fd5b610136610675565b604051808273ffffffffffffffffffffffffffffffffffffffff1673ffffffffffffffffffffffffffffffffffffffff16815260200191505060405180910390f35b341561018357600080fd5b61018b61069b565b604051808273ffffffffffffffffffffffffffffffffffffffff1673ffffffffffffffffffffffffffffffffffffffff16815260200191505060405180910390f35b34156101d857600080fd5b6101e06106c0565b005b34156101ed57600080fd5b6101f56107d9565b604051808273ffffffffffffffffffffffffffffffffffffffff1673ffffffffffffffffffffffffffffffffffffffff16815260200191505060405180910390f35b341561024257600080fd5b61026e600480803573ffffffffffffffffffffffffffffffffffffffff169060200190919050506107ff565b6040518082815260200191505060405180910390f35b60036020528060005260406000206000915090505481565b6000600360008373ffffffffffffffffffffffffffffffffffffffff1673ffffffffffffffffffffffffffffffffffffffff168152602001908152602001600020541115156102ea57600080fd5b8073ffffffffffffffffffffffffffffffffffffffff166108fc600360008473ffffffffffffffffffffffffffffffffffffffff1673ffffffffffffffffffffffffffffffffffffffff168152602001908152602001600020549081150290604051600060405180830381858888f19350505050151561036957600080fd5b6000600360008373ffffffffffffffffffffffffffffffffffffffff1673ffffffffffffffffffffffffffffffffffffffff168152602001908152602001600020819055507faf66eb1ff59a99165e990351acac53ab2fbc78bf79381392dd75b57ed2b8c40c81604051808273ffffffffffffffffffffffffffffffffffffffff1673ffffffffffffffffffffffffffffffffffffffff16815260200191505060405180910390a150565b6000806000809054906101000a900473ffffffffffffffffffffffffffffffffffffffff1673ffffffffffffffffffffffffffffffffffffffff163373ffffffffffffffffffffffffffffffffffffffff1614151561047257600080fd5b6000341415151561048257600080fd5b60023481151561048e57fe5b049150600282023403905080600360008060009054906101000a900473ffffffffffffffffffffffffffffffffffffffff1673ffffffffffffffffffffffffffffffffffffffff1673ffffffffffffffffffffffffffffffffffffffff168152602001908152602001600020600082825401925050819055508160036000600160009054906101000a900473ffffffffffffffffffffffffffffffffffffffff1673ffffffffffffffffffffffffffffffffffffffff1673ffffffffffffffffffffffffffffffffffffffff168152602001908152602001600020600082825401925050819055508160036000600260009054906101000a900473ffffffffffffffffffffffffffffffffffffffff1673ffffffffffffffffffffffffffffffffffffffff1673ffffffffffffffffffffffffffffffffffffffff168152602001908152602001600020600082825401925050819055507fdf1335ce586c556fb6d046e8de8a1cef4d92c537b639dffc729719171a9869bf6000809054906101000a900473ffffffffffffffffffffffffffffffffffffffff1634604051808373ffffffffffffffffffffffffffffffffffffffff1673ffffffffffffffffffffffffffffffffffffffff1681526020018281526020019250505060405180910390a15050565b600260009054906101000a900473ffffffffffffffffffffffffffffffffffffffff1681565b6000809054906101000a900473ffffffffffffffffffffffffffffffffffffffff1681565b6000809054906101000a900473ffffffffffffffffffffffffffffffffffffffff1673ffffffffffffffffffffffffffffffffffffffff163373ffffffffffffffffffffffffffffffffffffffff1614151561071b57600080fd5b7f6dc7742eb4a18744cefe7f0bb51d1d6e93002b7aad6e7bece2dcbef1233089686000809054906101000a900473ffffffffffffffffffffffffffffffffffffffff16604051808273ffffffffffffffffffffffffffffffffffffffff1673ffffffffffffffffffffffffffffffffffffffff16815260200191505060405180910390a16000809054906101000a900473ffffffffffffffffffffffffffffffffffffffff1673ffffffffffffffffffffffffffffffffffffffff16ff5b600160009054906101000a900473ffffffffffffffffffffffffffffffffffffffff1681565b6000600360008373ffffffffffffffffffffffffffffffffffffffff1673ffffffffffffffffffffffffffffffffffffffff1681526020019081526020016000205490509190505600a165627a7a72305820e1ce4bc7d5d3f82907f79f4c535edc0b6aaa4d48e34e1130a8d1a76a4c4b10f50029",
  "source": "pragma solidity ^0.4.18;\ncontract Splitter {\n\n    address public owner;\n    address public bob;\n    address public carol;\n\n    mapping (address => uint ) public balances;\n\n    event LogSplitting(address sender, uint amountToSplit);\n    event LogKillContract(address sender);\n    event LogWithdraw(address person);\n\n    function Splitter(address addressBob, address addressCarol) public {\n        owner = msg.sender;\n        bob = addressBob;\n        carol = addressCarol;\n    }\n\n    function getBalance(address person) constant public returns(uint) {\n        return balances[person];\n    }\n\n    function splitValue() payable public {\n        require(msg.sender == owner);\n        require(msg.value != 0);\n\n        uint splittedValue = msg.value / 2;\n\t\tuint remainder = msg.value - (splittedValue * 2);\n\n\t\tbalances[owner] += remainder;\n\t\tbalances[bob] += splittedValue;\n\t\tbalances[carol] += splittedValue;\n\n\t\tLogSplitting(owner, msg.value);\n    }\n\n    function killSwitch() public {\n        require(msg.sender == owner);\n        LogKillContract(owner);\n        selfdestruct(owner);\n    }\n\n    function withdraw(address person) public {\n        require(balances[person] > 0);\n        person.transfer(balances[person]);\n        balances[person] = 0;\n        LogWithdraw(person);\n    }\n}\n",
  "sourcePath": "/Users/Air/Documents/Projects/Blockchain/Splitter/contracts/Splitter.sol",
  "compiler": {
    "name": "solc",
    "version": "0.4.18+commit.9cf6e910.Emscripten.clang"
  },
  "schemaVersion": "1.0.1",
  "updatedAt": "2017-12-12T21:54:38.441Z"
}